:100000000C942A000C94E0010C943C000C943C00ED
:100010000C943C000C943C000C943C000C943C0070
:100020000C943C000C943C000C943C000C943C0060
:100030000C943C000C943C000C943C000C943C0050
:100040000C943C000C943C000C943C000C943C0040
:100050000C943C0011241FBECFE5D8E0DEBFCDBF1D
:1000600020E0A0E6B0E001C01D92A136B207E1F7A2
:100070000E942B020C948F030C94000064E482E035
:100080000E94070261E480E00E94100261E481E0C6
:100090000E94100261E482E00E94100262E480E0AB
:1000A0000E94100262E481E00E94100262E482E099
:1000B0000E941002789485B7836085BF8BB78064F7
:1000C0008BBF089581E08093600061E480E00E942E
:1000D000190281E00E94710361E480E00E9419022C
:1000E00081E00E94710361E480E00E94190281E0D6
:1000F0000E94710361E480E00E94190281E00E9485
:10010000710361E480E00E94190281E00E947103A2
:1001100061E480E00E94190281E00E94710361E4C1
:1001200080E00E94190281E00E94710361E480E096
:100130000E94190281E00E94710361E480E00E9444
:10014000190281E00E94710361E480E00E941902BB
:1001500081E00E94710361E480E00E942202089520
:1001600081E08093600061E40E94190281E00E94B6
:10017000710361E481E00E94220281E00E94710328
:1001800061E481E00E94190281E00E94710361E450
:1001900081E00E94220281E00E94710361E481E01B
:1001A0000E94190281E00E94710361E481E00E94D3
:1001B000220281E00E94710361E481E00E94190241
:1001C00082E00E94710361E481E00E94220281E0EA
:1001D0000E94710361E481E00E94190261E481E000
:1001E0000E94220210926000089561E482E00E9461
:1001F000190281E00E94710361E482E00E94190209
:1002000081E00E94710361E482E00E94190281E0B2
:100210000E94710361E482E00E94190281E00E9461
:10022000710361E482E00E94190281E00E9471037F
:1002300061E482E00E94190281E00E94710361E49E
:1002400082E00E94190281E00E94710361E482E071
:100250000E94190281E00E94710361E482E00E9421
:10026000190281E00E94710361E482E00E94190298
:1002700081E00E94710361E482E00E9422020895FD
:1002800061E481E00E94190262E481E00E941902A7
:1002900081E00E94710361E481E00E94220262E435
:1002A00081E00E94220281E00E94710361E481E00A
:1002B0000E94190262E481E00E94190281E00E941A
:1002C000710361E481E00E94220262E481E00E9405
:1002D000220281E00E94710361E481E00E94190220
:1002E00062E481E00E94190281E00E94710361E4EE
:1002F00081E00E94220262E481E00E94220281E009
:100300000E94710361E481E00E94190262E481E0CD
:100310000E94190281E00E94710361E481E00E9461
:10032000220262E481E00E94220281E00E947103C5
:1003300061E481E00E94190262E481E00E941902F6
:1003400082E00E94710361E481E00E94220262E483
:1003500081E00E942202089561E480E00E9422026E
:1003600061E481E00E94220262E482E00E941902BC
:100370000E94400162E482E00E94220261E482E085
:100380000E94190262E480E00E9419028AE00E9441
:10039000710361E482E00E94220262E480E00E9434
:1003A00022020E94400108950E9462000E94B00053
:1003B0000E94F5000E94B00008950E94D4010895A3
:1003C0001F920F920FB60F9211242F933F934F93CA
:1003D0005F936F937F938F939F93AF93BF93EF93AD
:1003E000FF938091600081110E94AC01FF91EF9119
:1003F000BF91AF919F918F917F916F915F914F913D
:100400003F912F910F900FBE0F901F90189540E0D5
:100410000E943002882311F080E0089581E0089561
:1004200041E00E943002882311F080E0089581E0CD
:10043000089541E00E94CD02882311F080E00895E4
:1004400081E0089540E00E94CD02882311F080E011
:10045000089581E008950E943E000E94DD01FDCFD5
:10046000623469F118F4613441F08DC0633409F4E9
:1004700048C0643409F466C086C041110FC04AB355
:1004800021E030E0B90102C0660F771F8A95E2F7DC
:10049000CB01809584238ABB81E00895413009F027
:1004A00074C04AB321E030E0B90102C0660F771F83
:1004B0008A95E2F7CB01842B8ABB81E00895411134
:1004C0000FC047B321E030E0B90102C0660F771FCB
:1004D0008A95E2F7CB018095842387BB81E008955C
:1004E000413009F054C047B321E030E0B90102C007
:1004F000660F771F8A95E2F7CB01842B87BB81E0DB
:10050000089541110FC044B321E030E0B90102C0A9
:10051000660F771F8A95E2F7CB018095842384BB11
:1005200081E008954130A9F544B321E030E0B901FC
:1005300002C0660F771F8A95E2F7CB01842B84BB3C
:1005400081E0089541110FC041B321E030E0B901CD
:1005500002C0660F771F8A95E2F7CB01809584234E
:1005600081BB81E008954130B1F441B321E030E036
:10057000B90102C0660F771F8A95E2F7CB01842B81
:1005800081BB81E0089581E0089580E0089580E0D6
:10059000089580E0089580E00895623469F118F4C8
:1005A000613441F08DC0633409F448C0643409F407
:1005B00066C086C041110FC04BB321E030E0B901E5
:1005C00002C0660F771F8A95E2F7CB0180958423DE
:1005D0008BBB81E00895413009F074C04BB321E03A
:1005E00030E0B90102C0660F771F8A95E2F7CB01B0
:1005F000842B8BBB81E0089541110FC048B321E0EB
:1006000030E0B90102C0660F771F8A95E2F7CB018F
:100610008095842388BB81E00895413009F054C05F
:1006200048B321E030E0B90102C0660F771F8A9518
:10063000E2F7CB01842B88BB81E0089541110FC004
:1006400045B321E030E0B90102C0660F771F8A95FB
:10065000E2F7CB018095842385BB81E0089541308A
:10066000A9F545B321E030E0B90102C0660F771F5C
:100670008A95E2F7CB01842B85BB81E00895411177
:100680000FC042B321E030E0B90102C0660F771F0E
:100690008A95E2F7CB018095842382BB81E008959F
:1006A0004130B1F442B321E030E0B90102C0660F3D
:1006B000771F8A95E2F7CB01842B82BB81E00895F6
:1006C00081E0089580E0089580E0089580E0089535
:1006D00080E0089513BE12BE089583B7816083BF82
:1006E0000895CF93C82F0E946A030E946D0320E0F3
:1006F00030E008C008B600FEFDCF88B7816088BF33
:100700002F5F3F4F40ED57E0C49FC001C59F900D44
:1007100011242817390770F380E0CF910895F894D9
:02072000FFCF09
:00000001FF
